{
  "contractName": "Culotte",
  "abi": [
    {
      "constant": true,
      "inputs": [],
      "name": "criteria",
      "outputs": [
        {
          "name": "",
          "type": "string"
        }
      ],
      "payable": false,
      "stateMutability": "view",
      "type": "function"
    },
    {
      "inputs": [],
      "payable": false,
      "stateMutability": "nonpayable",
      "type": "constructor"
    },
    {
      "anonymous": false,
      "inputs": [
        {
          "indexed": false,
          "name": "_candidate",
          "type": "address"
        }
      ],
      "name": "BallotOpened",
      "type": "event"
    },
    {
      "anonymous": false,
      "inputs": [
        {
          "indexed": false,
          "name": "_candidate",
          "type": "address"
        }
      ],
      "name": "BallotClosed",
      "type": "event"
    },
    {
      "anonymous": false,
      "inputs": [
        {
          "indexed": false,
          "name": "_from",
          "type": "address"
        },
        {
          "indexed": false,
          "name": "_candidate",
          "type": "address"
        },
        {
          "indexed": false,
          "name": "_vote",
          "type": "bool"
        }
      ],
      "name": "VoteReceived",
      "type": "event"
    },
    {
      "constant": false,
      "inputs": [
        {
          "name": "_vote",
          "type": "bool"
        },
        {
          "name": "_candidate",
          "type": "address"
        }
      ],
      "name": "vote",
      "outputs": [],
      "payable": true,
      "stateMutability": "payable",
      "type": "function"
    },
    {
      "constant": true,
      "inputs": [
        {
          "name": "_vote",
          "type": "bool"
        },
        {
          "name": "_candidate",
          "type": "address"
        }
      ],
      "name": "getAmount",
      "outputs": [
        {
          "name": "",
          "type": "uint256"
        }
      ],
      "payable": false,
      "stateMutability": "view",
      "type": "function"
    },
    {
      "constant": true,
      "inputs": [],
      "name": "closingLottery",
      "outputs": [
        {
          "name": "",
          "type": "bool"
        }
      ],
      "payable": false,
      "stateMutability": "view",
      "type": "function"
    }
  ],
  "bytecode": "0x608060405234801561001057600080fd5b506040805190810160405280601a81526020017f49732061206772656174204f535320636f6e7472696275746f720000000000008152506000908051906020019061005c929190610062565b50610107565b828054600181600116156101000203166002900490600052602060002090601f016020900481019282601f106100a357805160ff19168380011785556100d1565b828001600101855582156100d1579182015b828111156100d05782518255916020019190600101906100b5565b5b5090506100de91906100e2565b5090565b61010491905b808211156101005760008160009055506001016100e8565b5090565b90565b610678806101166000396000f3fe608060405260043610610062576000357c0100000000000000000000000000000000000000000000000000000000900463ffffffff168063633dfc701461006757806371131e16146100b757806384c2caf714610128578063b0afb95b14610157575b600080fd5b6100b56004803603604081101561007d57600080fd5b81019080803515159060200190929190803573ffffffffffffffffffffffffffffffffffffffff1690602001909291905050506101e7565b005b3480156100c357600080fd5b50610112600480360360408110156100da57600080fd5b81019080803515159060200190929190803573ffffffffffffffffffffffffffffffffffffffff1690602001909291905050506104e1565b6040518082815260200191505060405180910390f35b34801561013457600080fd5b5061013d610547565b604051808215151515815260200191505060405180910390f35b34801561016357600080fd5b5061016c6105ae565b6040518080602001828103825283818151815260200191508051906020019080838360005b838110156101ac578082015181840152602081019050610191565b50505050905090810190601f1680156101d95780820380516001836020036101000a031916815260200191505b509250505060405180910390f35b6000600160008373ffffffffffffffffffffffffffffffffffffffff1673ffffffffffffffffffffffffffffffffffffffff1681526020019081526020016000209050600073ffffffffffffffffffffffffffffffffffffffff168160000160009054906101000a900473ffffffffffffffffffffffffffffffffffffffff1673ffffffffffffffffffffffffffffffffffffffff1614156102e7577fdce54d332c0714f1ffba57612ac1a768b1ed73e8a6bad9e236aba5b638a4e6e582604051808273ffffffffffffffffffffffffffffffffffffffff1673ffffffffffffffffffffffffffffffffffffffff16815260200191505060405180910390a15b818160000160006101000a81548173ffffffffffffffffffffffffffffffffffffffff021916908373ffffffffffffffffffffffffffffffffffffffff160217905550821561039657348160010160003373ffffffffffffffffffffffffffffffffffffffff1673ffffffffffffffffffffffffffffffffffffffff168152602001908152602001600020600082825401925050819055503481600201600082825401925050819055506103f8565b348160030160003373ffffffffffffffffffffffffffffffffffffffff1673ffffffffffffffffffffffffffffffffffffffff168152602001908152602001600020600082825401925050819055503481600401600082825401925050819055505b7fd99b8f3269164ebc710bdbbdba53589c7df9e778c41d74228de52c6e9d4c7023338385604051808473ffffffffffffffffffffffffffffffffffffffff1673ffffffffffffffffffffffffffffffffffffffff1681526020018373ffffffffffffffffffffffffffffffffffffffff1673ffffffffffffffffffffffffffffffffffffffff16815260200182151515158152602001935050505060405180910390a180600501544311156104dc574381600501819055506104b8610547565b156104db5760008160060160006101000a81548160ff0219169083151502179055505b5b505050565b600080600160008473ffffffffffffffffffffffffffffffffffffffff1673ffffffffffffffffffffffffffffffffffffffff16815260200190815260200160002090508315610538578060020154915050610541565b80600401549150505b92915050565b60008044426040516020018083815260200182815260200192505050604051602081830303815290604052805190602001206001900490506000600a8281151561058d57fe5b06905060068111156105a4576001925050506105ab565b6000925050505b90565b60008054600181600116156101000203166002900480601f0160208091040260200160405190810160405280929190818152602001828054600181600116156101000203166002900480156106445780601f1061061957610100808354040283529160200191610644565b820191906000526020600020905b81548152906001019060200180831161062757829003601f168201915b50505050508156fea165627a7a723058206116373fb3050cb7cac9acc001cf1c0814353a18f5832a6b4625d8219d214cbc0029",
  "source": "pragma solidity ^0.5.0;\n\ncontract Culotte {\n\n  string public criteria;\n\n  struct Ballot {\n    address candidate;\n    mapping (address => uint256) votesFor;\n    uint256 forAmount;\n    mapping (address => uint256)votesAgainst;\n    uint256 againstAmount;\n    uint blockNumber;\n    bool opened;\n  }\n\n  mapping (address => Ballot) private ballots;\n\n  event BallotOpened(address _candidate);\n  event BallotClosed(address _candidate);\n  event VoteReceived(address _from, address _candidate, bool _vote);\n\n\n  constructor() public{\n    criteria = 'Is a great OSS contributor';\n  }\n\n  function vote(bool _vote, address _candidate) public payable {\n    Ballot storage ballot = ballots[_candidate];\n    if (ballot.candidate == address(0x0)) {\n      // this is a new ballot, emit an event\n      emit BallotOpened(_candidate);\n    }\n\n    ballot.candidate = _candidate;\n    if (_vote) {\n      ballot.votesFor[msg.sender] += msg.value;\n      ballot.forAmount+= msg.value;\n    } else {\n      ballot.votesAgainst[msg.sender] += msg.value;\n      ballot.againstAmount += msg.value;\n    }\n    emit VoteReceived(msg.sender, _candidate, _vote);\n\n    if(block.number > ballot.blockNumber) {\n      // update ballot block number\n      ballot.blockNumber = block.number;\n      // start closing ballot lottery\n      if(closingLottery()) {\n        ballot.opened = false;\n      }\n    }\n  }\n\n  function getAmount(bool _vote, address _candidate) public view returns (uint256){\n    Ballot storage ballot = ballots[_candidate];\n    if (_vote)\n      return ballot.forAmount;\n    else\n      return ballot.againstAmount;\n  }\n\n  function closingLottery() public view returns (bool) {\n    uint randomHash = uint(keccak256(abi.encodePacked(block.difficulty,block.timestamp)));\n    uint res = randomHash % 10;\n    if(res > 6) {\n      return true;\n    }\n    return false;\n  }\n}\n",
  "sourcePath": "/Users/axel/angu/culottes/contracts/Culotte.sol",
  "compiler": {
    "name": "solc",
    "version": "0.5.0+commit.1d4f565a.Emscripten.clang"
  },
  "schemaVersion": "3.0.2",
  "updatedAt": "2019-03-09T17:50:36.680Z",
  "devdoc": {
    "methods": {}
  },
  "userdoc": {
    "methods": {}
  }
}