{
  "contractName": "Bastille",
  "abi": [
    {
      "constant": true,
      "inputs": [],
      "name": "criteria",
      "outputs": [
        {
          "name": "",
          "type": "string"
        }
      ],
      "payable": false,
      "stateMutability": "view",
      "type": "function",
      "signature": "0xb0afb95b"
    },
    {
      "constant": true,
      "inputs": [],
      "name": "bastilleBalance",
      "outputs": [
        {
          "name": "",
          "type": "uint256"
        }
      ],
      "payable": false,
      "stateMutability": "view",
      "type": "function",
      "signature": "0xb7d352ba"
    },
    {
      "inputs": [
        {
          "name": "_criteria",
          "type": "string"
        },
        {
          "name": "_distributionBlockPeriod",
          "type": "uint256"
        },
        {
          "name": "_distributionAmount",
          "type": "uint256"
        },
        {
          "name": "_withLottery",
          "type": "bool"
        },
        {
          "name": "_withDistribution",
          "type": "bool"
        }
      ],
      "payable": false,
      "stateMutability": "nonpayable",
      "type": "constructor",
      "signature": "constructor"
    },
    {
      "payable": true,
      "stateMutability": "payable",
      "type": "fallback"
    },
    {
      "anonymous": false,
      "inputs": [
        {
          "indexed": true,
          "name": "_eventName",
          "type": "string"
        },
        {
          "indexed": true,
          "name": "_citizen",
          "type": "address"
        }
      ],
      "name": "TrialOpened",
      "type": "event",
      "signature": "0x2b1fa35dcabf0e72afadd42d7efcc5fda1e9e219c688ca47ffdae516608481e8"
    },
    {
      "anonymous": false,
      "inputs": [
        {
          "indexed": true,
          "name": "_eventName",
          "type": "string"
        },
        {
          "indexed": true,
          "name": "_citizen",
          "type": "address"
        }
      ],
      "name": "TrialClosed",
      "type": "event",
      "signature": "0x8406084066426d97fed8563810860f2d4ff989df040e52bec182f37846cede40"
    },
    {
      "anonymous": false,
      "inputs": [
        {
          "indexed": true,
          "name": "_eventName",
          "type": "string"
        },
        {
          "indexed": false,
          "name": "_from",
          "type": "address"
        },
        {
          "indexed": true,
          "name": "_citizen",
          "type": "address"
        },
        {
          "indexed": false,
          "name": "_vote",
          "type": "bool"
        },
        {
          "indexed": true,
          "name": "_amount",
          "type": "uint256"
        }
      ],
      "name": "VoteReceived",
      "type": "event",
      "signature": "0x2d001ba489b53f78f9a965d14bebd1e1629df65697050744dae7675b69db34ec"
    },
    {
      "anonymous": false,
      "inputs": [
        {
          "indexed": true,
          "name": "_eventName",
          "type": "string"
        },
        {
          "indexed": true,
          "name": "_citizen",
          "type": "address"
        },
        {
          "indexed": false,
          "name": "_distributionAmount",
          "type": "uint256"
        }
      ],
      "name": "Distribution",
      "type": "event",
      "signature": "0xbcb270aba9ccdcfdc196db5fb5d9f7cfce18dcd9d121028ff85a4e6c18d7a3f6"
    },
    {
      "constant": false,
      "inputs": [
        {
          "name": "_vote",
          "type": "bool"
        },
        {
          "name": "_citizen",
          "type": "address"
        }
      ],
      "name": "vote",
      "outputs": [],
      "payable": true,
      "stateMutability": "payable",
      "type": "function",
      "signature": "0x633dfc70"
    },
    {
      "constant": false,
      "inputs": [
        {
          "name": "_citizen",
          "type": "address"
        }
      ],
      "name": "closeTrial",
      "outputs": [],
      "payable": false,
      "stateMutability": "nonpayable",
      "type": "function",
      "signature": "0x7f176590"
    },
    {
      "constant": false,
      "inputs": [],
      "name": "distribute",
      "outputs": [],
      "payable": false,
      "stateMutability": "nonpayable",
      "type": "function",
      "signature": "0xe4fc6b6d"
    },
    {
      "constant": true,
      "inputs": [
        {
          "name": "_vote",
          "type": "bool"
        },
        {
          "name": "_citizen",
          "type": "address"
        }
      ],
      "name": "getAmount",
      "outputs": [
        {
          "name": "",
          "type": "uint256"
        }
      ],
      "payable": false,
      "stateMutability": "view",
      "type": "function",
      "signature": "0x71131e16"
    },
    {
      "constant": true,
      "inputs": [
        {
          "name": "_citizen",
          "type": "address"
        }
      ],
      "name": "trialStatus",
      "outputs": [
        {
          "name": "opened",
          "type": "bool"
        },
        {
          "name": "verdict",
          "type": "bool"
        },
        {
          "name": "sansculotte",
          "type": "uint256"
        },
        {
          "name": "privileged",
          "type": "uint256"
        }
      ],
      "payable": false,
      "stateMutability": "view",
      "type": "function",
      "signature": "0x12ad0ec1"
    }
  ],
  "bytecode": "0x60806040523480156200001157600080fd5b50604051620014f0380380620014f0833981018060405260a08110156200003757600080fd5b8101908080516401000000008111156200005057600080fd5b828101905060208101848111156200006757600080fd5b81518560018202830111640100000000821117156200008557600080fd5b5050929190602001805190602001909291908051906020019092919080519060200190929190805190602001909291905050508460009080519060200190620000d092919062000125565b5083600181905550826002819055504360038190555081600460006101000a81548160ff02191690831515021790555080600460016101000a81548160ff0219169083151502179055505050505050620001d4565b828054600181600116156101000203166002900490600052602060002090601f016020900481019282601f106200016857805160ff191683800117855562000199565b8280016001018555821562000199579182015b82811115620001985782518255916020019190600101906200017b565b5b509050620001a89190620001ac565b5090565b620001d191905b80821115620001cd576000816000905550600101620001b3565b5090565b90565b61130c80620001e46000396000f3fe608060405260043610610083576000357c0100000000000000000000000000000000000000000000000000000000900463ffffffff16806312ad0ec114610095578063633dfc701461011757806371131e16146101675780637f176590146101d8578063b0afb95b14610229578063b7d352ba146102b9578063e4fc6b6d146102e4575b34600760008282540192505081905550005b3480156100a157600080fd5b506100e4600480360360208110156100b857600080fd5b81019080803573ffffffffffffffffffffffffffffffffffffffff1690602001909291905050506102fb565b60405180851515151581526020018415151515815260200183815260200182815260200194505050505060405180910390f35b6101656004803603604081101561012d57600080fd5b81019080803515159060200190929190803573ffffffffffffffffffffffffffffffffffffffff169060200190929190505050610570565b005b34801561017357600080fd5b506101c26004803603604081101561018a57600080fd5b81019080803515159060200190929190803573ffffffffffffffffffffffffffffffffffffffff1690602001909291905050506109ca565b6040518082815260200191505060405180910390f35b3480156101e457600080fd5b50610227600480360360208110156101fb57600080fd5b81019080803573ffffffffffffffffffffffffffffffffffffffff169060200190929190505050610a36565b005b34801561023557600080fd5b5061023e610d95565b6040518080602001828103825283818151815260200191508051906020019080838360005b8381101561027e578082015181840152602081019050610263565b50505050905090810190601f1680156102ab5780820380516001836020036101000a031916815260200191505b509250505060405180910390f35b3480156102c557600080fd5b506102ce610e33565b6040518082815260200191505060405180910390f35b3480156102f057600080fd5b506102f9610e39565b005b600080600080610309611268565b600660008773ffffffffffffffffffffffffffffffffffffffff1673ffffffffffffffffffffffffffffffffffffffff16815260200190815260200160002060c060405190810160405290816000820160009054906101000a900473ffffffffffffffffffffffffffffffffffffffff1673ffffffffffffffffffffffffffffffffffffffff1673ffffffffffffffffffffffffffffffffffffffff168152602001600182016040805190810160405290816000820180548060200260200160405190810160405280929190818152602001828054801561043f57602002820191906000526020600020905b8160009054906101000a900473ffffffffffffffffffffffffffffffffffffffff1673ffffffffffffffffffffffffffffffffffffffff16815260200190600101908083116103f5575b50505050508152602001600282015481525050815260200160048201604080519081016040529081600082018054806020026020016040519081016040528092919081815260200182805480156104eb57602002820191906000526020600020905b8160009054906101000a900473ffffffffffffffffffffffffffffffffffffffff1673ffffffffffffffffffffffffffffffffffffffff16815260200190600101908083116104a1575b505050505081526020016002820154815250508152602001600782015481526020016008820160009054906101000a900460ff161515151581526020016008820160019054906101000a900460ff161515151581525050905080608001518160a001518260200151602001518360400151602001519450945094509450509193509193565b6000600660008373ffffffffffffffffffffffffffffffffffffffff1673ffffffffffffffffffffffffffffffffffffffff1681526020019081526020016000209050600073ffffffffffffffffffffffffffffffffffffffff168160000160009054906101000a900473ffffffffffffffffffffffffffffffffffffffff1673ffffffffffffffffffffffffffffffffffffffff16141561072f578173ffffffffffffffffffffffffffffffffffffffff1660405180807f547269616c4f70656e6564000000000000000000000000000000000000000000815250600b01905060405180910390207f2b1fa35dcabf0e72afadd42d7efcc5fda1e9e219c688ca47ffdae516608481e860405160405180910390a360058290806001815401808255809150509060018203906000526020600020016000909192909190916101000a81548173ffffffffffffffffffffffffffffffffffffffff021916908373ffffffffffffffffffffffffffffffffffffffff16021790555050818160000160006101000a81548173ffffffffffffffffffffffffffffffffffffffff021916908373ffffffffffffffffffffffffffffffffffffffff1602179055505b6000816001019050831515610745578160040190505b806000013390806001815401808255809150509060018203906000526020600020016000909192909190916101000a81548173ffffffffffffffffffffffffffffffffffffffff021916908373ffffffffffffffffffffffffffffffffffffffff16021790555050348160010160003373ffffffffffffffffffffffffffffffffffffffff1673ffffffffffffffffffffffffffffffffffffffff16815260200190815260200160002060008282540192505081905550348160020160008282540192505081905550348373ffffffffffffffffffffffffffffffffffffffff1660405180807f566f746552656365697665640000000000000000000000000000000000000000815250600c01905060405180910390207f2d001ba489b53f78f9a965d14bebd1e1629df65697050744dae7675b69db34ec3388604051808373ffffffffffffffffffffffffffffffffffffffff1673ffffffffffffffffffffffffffffffffffffffff168152602001821515151581526020019250505060405180910390a4600460009054906101000a900460ff1680156108ea5750816007015443115b156109a657438260070181905550610900611201565b156109a55760008260080160006101000a81548160ff0219169083151502179055508273ffffffffffffffffffffffffffffffffffffffff1660405180807f547269616c436c6f736564000000000000000000000000000000000000000000815250600b01905060405180910390207f8406084066426d97fed8563810860f2d4ff989df040e52bec182f37846cede4060405160405180910390a36109a483610a36565b5b5b600460019054906101000a900460ff16156109c4576109c3610e39565b5b50505050565b600080600660008473ffffffffffffffffffffffffffffffffffffffff1673ffffffffffffffffffffffffffffffffffffffff16815260200190815260200160002090508315610a24578060010160020154915050610a30565b80600401600201549150505b92915050565b6000600660008373ffffffffffffffffffffffffffffffffffffffff1673ffffffffffffffffffffffffffffffffffffffff16815260200190815260200160002090506000816001019050600082600401905060018360080160016101000a81548160ff021916908315150217905550826004016002015482600201541015610ae35782600401915082600101905060008360080160016101000a81548160ff0219169083151502179055505b60008090505b8260000180549050811015610cbe5760008360000182815481101515610b0b57fe5b9060005260206000200160009054906101000a900473ffffffffffffffffffffffffffffffffffffffff16905060008460010160008373ffffffffffffffffffffffffffffffffffffffff1673ffffffffffffffffffffffffffffffffffffffff168152602001908152602001600020549050600085600201548660010160008573ffffffffffffffffffffffffffffffffffffffff1673ffffffffffffffffffffffffffffffffffffffff16815260200190815260200160002054866002015402811515610bd657fe5b0490508273ffffffffffffffffffffffffffffffffffffffff166108fc839081150290604051600060405180830381858888f19350505050158015610c1f573d6000803e3d6000fd5b508273ffffffffffffffffffffffffffffffffffffffff166108fc829081150290604051600060405180830381858888f19350505050158015610c66573d6000803e3d6000fd5b5060008660010160008573ffffffffffffffffffffffffffffffffffffffff1673ffffffffffffffffffffffffffffffffffffffff168152602001908152602001600020819055505050508080600101915050610ae9565b50806002015482600201540360078190555060008090505b8160000180549050811015610d7a5760008260000182815481101515610cf857fe5b9060005260206000200160009054906101000a900473ffffffffffffffffffffffffffffffffffffffff16905060008360010160008373ffffffffffffffffffffffffffffffffffffffff1673ffffffffffffffffffffffffffffffffffffffff16815260200190815260200160002081905550508080600101915050610cd6565b50600082600201819055506000816002018190555050505050565b60008054600181600116156101000203166002900480601f016020809104026020016040519081016040528092919081815260200182805460018160011615610100020316600290048015610e2b5780601f10610e0057610100808354040283529160200191610e2b565b820191906000526020600020905b815481529060010190602001808311610e0e57829003601f168201915b505050505081565b60075481565b60008090505b6005805490508110156111fe576000600582815481101515610e5d57fe5b9060005260206000200160009054906101000a900473ffffffffffffffffffffffffffffffffffffffff169050610e92611268565b600660008373ffffffffffffffffffffffffffffffffffffffff1673ffffffffffffffffffffffffffffffffffffffff16815260200190815260200160002060c060405190810160405290816000820160009054906101000a900473ffffffffffffffffffffffffffffffffffffffff1673ffffffffffffffffffffffffffffffffffffffff1673ffffffffffffffffffffffffffffffffffffffff1681526020016001820160408051908101604052908160008201805480602002602001604051908101604052809291908181526020018280548015610fc857602002820191906000526020600020905b8160009054906101000a900473ffffffffffffffffffffffffffffffffffffffff1673ffffffffffffffffffffffffffffffffffffffff1681526020019060010190808311610f7e575b505050505081526020016002820154815250508152602001600482016040805190810160405290816000820180548060200260200160405190810160405280929190818152602001828054801561107457602002820191906000526020600020905b8160009054906101000a900473ffffffffffffffffffffffffffffffffffffffff1673ffffffffffffffffffffffffffffffffffffffff168152602001906001019080831161102a575b505050505081526020016002820154815250508152602001600782015481526020016008820160009054906101000a900460ff161515151581526020016008820160019054906101000a900460ff161515151581525050905080608001511580156110e057508060a001515b80156110ef5750600254600754115b80156111015750600154600354014310155b15611169578173ffffffffffffffffffffffffffffffffffffffff166108fc6002549081150290604051600060405180830381858888f1935050505015801561114e573d6000803e3d6000fd5b50600254600760008282540392505081905550436003819055505b8173ffffffffffffffffffffffffffffffffffffffff1660405180807f446973747269627574696f6e0000000000000000000000000000000000000000815250600c01905060405180910390207fbcb270aba9ccdcfdc196db5fb5d9f7cfce18dcd9d121028ff85a4e6c18d7a3f66002546040518082815260200191505060405180910390a350508080600101915050610e3f565b50565b60008044426040516020018083815260200182815260200192505050604051602081830303815290604052805190602001206001900490506000600a8281151561124757fe5b069050600681111561125e57600192505050611265565b6000925050505b90565b61010060405190810160405280600073ffffffffffffffffffffffffffffffffffffffff16815260200161129a6112c6565b81526020016112a76112c6565b8152602001600081526020016000151581526020016000151581525090565b60408051908101604052806060815260200160008152509056fea165627a7a723058204c820911198a622810a2ad0b8d147c5d5c9df4d14ab567a019edc390466d57410029",
  "source": "pragma solidity ^0.5.0;\n\ncontract Bastille {\n\n  // Criteria the citizen should match to win votes\n  // e.g. : \"a sans-culotte\"\n  string public criteria;\n\n  // Minimum number of blocks before next cake distribution from the Bastille\n  uint distributionBlockPeriod;\n\n  // Amount of ETH to be distributed to each citizen matchin criteria\n  uint distributionAmount;\n\n  // Number of the block at last distribution\n  uint lastDistributionBlockNumber;\n\n  // Will this Bastille randomly close its votes ?\n  bool withLottery;\n\n  // Will this Bastille distribute cakes ?\n  bool withDistribution;\n\n  // For a given citizen, let's put all positive (or negative) votes\n  // received into a positive (or negative) justice scale.\n  struct JusticeScale {\n    address payable [] voters;\n    mapping (address => uint256) votes;\n    uint256 amount;\n  }\n\n  // This the revolutionary trial for a given citizen\n  struct Trial {\n    address payable citizen;\n    JusticeScale sansculotte;\n    JusticeScale privileged;\n    uint blockNumber;\n    bool opened;\n    bool verdict;\n  }\n\n  // Citizens known at this Bastille\n  address payable [] citizens;\n  // Trials known at this Bastille\n  mapping (address => Trial) private trials;\n\n  // This is the amount of cakes in the Bastille\n  uint256 public bastilleBalance;\n\n  // Start of new trial for a given citizen\n  event TrialOpened(string indexed _eventName, address indexed _citizen);\n  // End of trial for a given citizen\n  event TrialClosed(string indexed _eventName, address indexed _citizen);\n  // New cake-vote received for a given citizen\n  event VoteReceived(string indexed _eventName, address _from, address indexed _citizen, bool _vote, uint256 indexed _amount);\n  // \n  event Distribution(string indexed _eventName, address indexed _citizen, uint _distributionAmount);\n\n\n  constructor(string memory _criteria, uint _distributionBlockPeriod, uint _distributionAmount, bool _withLottery, bool _withDistribution) public{\n    criteria = _criteria;\n    distributionBlockPeriod = _distributionBlockPeriod;\n    distributionAmount = _distributionAmount;\n    lastDistributionBlockNumber = block.number;\n    withLottery = _withLottery;\n    withDistribution = _withDistribution;\n  }\n\n  function vote(bool _vote, address payable _citizen) public payable {\n    Trial storage trial = trials[_citizen];\n    if (trial.citizen == address(0x0) ) {\n      // this is a new trial, emit an event\n      emit TrialOpened('TrialOpened', _citizen);\n      citizens.push(_citizen);\n      trial.citizen = _citizen;\n    }\n\n    JusticeScale storage scale = trial.sansculotte;\n    if (!_vote) {\n      scale = trial.privileged;\n    }\n    scale.voters.push(msg.sender);\n    scale.votes[msg.sender] += msg.value;\n    scale.amount+= msg.value;\n\n    emit VoteReceived('VoteReceived', msg.sender, _citizen, _vote, msg.value);\n\n    if(withLottery && block.number > trial.blockNumber) {\n      // update trial block number\n      trial.blockNumber = block.number;\n      // start closing trial lottery\n      if(closingLottery()) {\n        trial.opened = false;\n        emit TrialClosed('TrialClosed', _citizen);\n        closeTrial(_citizen);\n      }\n    }\n\n    if(withDistribution) {\n      distribute();\n    }\n  }\n\n  function closeTrial(address payable _citizen) public {\n    Trial storage trial = trials[_citizen];\n    // and the winner is ...\n    JusticeScale storage winner = trial.sansculotte;\n    JusticeScale storage loser = trial.privileged;\n    trial.verdict = true;\n    if (winner.amount < trial.privileged.amount) {\n      winner = trial.privileged;\n      loser = trial.sansculotte;\n      trial.verdict = false;\n    }\n    // distribute winning cakes to winners\n    for (uint i = 0; i < winner.voters.length; i++) {\n      address payable voter = winner.voters[i];\n      uint256 winAmount = winner.votes[voter];\n      uint256 loseAmount = loser.amount * winner.votes[voter] / winner.amount;\n      voter.transfer(winAmount);\n      voter.transfer(loseAmount);\n      winner.votes[voter]=0;\n    }\n    // Compute Bastille virtual vote\n    bastilleBalance = winner.amount - loser.amount;\n\n    // share remaining lost cakes among winners proportionately to their winning votes\n    for (uint i = 0; i < loser.voters.length; i++) {\n      address payable voter = loser.voters[i];\n      loser.votes[voter]=0;\n    }\n\n    winner.amount = 0;\n    loser.amount = 0;\n\n  }\n\n  function distribute() public {\n    for (uint i = 0; i < citizens.length; i++) {\n      address payable citizen = citizens[i];\n      Trial memory trial = trials[citizen];\n      if (!trial.opened &&\n          trial.verdict &&\n          bastilleBalance > distributionAmount &&\n          (block.number >= lastDistributionBlockNumber + distributionBlockPeriod)) {\n        citizen.transfer(distributionAmount);\n        bastilleBalance -= distributionAmount;\n        lastDistributionBlockNumber = block.number;\n      }\n      emit Distribution('Distribution', citizen, distributionAmount);\n    }\n  }\n\n  function getAmount(bool _vote, address _citizen) public view returns (uint256){\n    Trial storage trial = trials[_citizen]; \n    if (_vote)\n      return trial.sansculotte.amount;\n    else\n      return trial.privileged.amount;\n  }\n\n  function closingLottery() private view returns (bool) {\n    uint randomHash = uint(keccak256(abi.encodePacked(block.difficulty,block.timestamp)));\n    uint res = randomHash % 10;\n    if(res > 6) {\n      return true;\n    }\n    return false;\n  }\n\n  function trialStatus(address _citizen) public view returns(bool opened, bool verdict, uint256 sansculotte, uint256 privileged) {\n    Trial memory trial = trials[_citizen];\n    return (trial.opened, trial.verdict, trial.sansculotte.amount, trial.privileged.amount);\n  }\n\n  function() payable external {\n    bastilleBalance += msg.value;\n  }\n}\n",
  "sourcePath": "/home/jean/Desktop/personnel-et-confidentiel/bricolo/2019/the_dapp/culottes/contracts/Bastille.sol",
  "compiler": {
    "name": "solc",
    "version": "0.5.0+commit.1d4f565a.Emscripten.clang"
  },
  "schemaVersion": "3.0.2",
  "updatedAt": "2019-04-07T00:07:33.517Z",
  "devdoc": {
    "methods": {}
  },
  "userdoc": {
    "methods": {}
  }
}